{
  "contractName": "CreateWallet",
  "abi": [
    {
      "inputs": [],
      "name": "createWallet",
      "outputs": [],
      "stateMutability": "nonpayable",
      "type": "function"
    },
    {
      "inputs": [],
      "name": "showMyContractAddress",
      "outputs": [
        {
          "internalType": "address",
          "name": "",
          "type": "address"
        }
      ],
      "stateMutability": "view",
      "type": "function"
    }
  ],
  "bytecode": "0x608060405234801561001057600080fd5b5061070b806100206000396000f3fe608060405234801561001057600080fd5b50600436106100365760003560e01c806311ebbf241461003b578063de7e7d0514610045575b600080fd5b610043610079565b005b61004d6101db565b604051808273ffffffffffffffffffffffffffffffffffffffff16815260200191505060405180910390f35b600160003373ffffffffffffffffffffffffffffffffffffffff1673ffffffffffffffffffffffffffffffffffffffff16815260200190815260200160002060009054906101000a900460ff16156100d057600080fd5b6000336040516100df906102f7565b808273ffffffffffffffffffffffffffffffffffffffff168152602001915050604051809103906000f08015801561011b573d6000803e3d6000fd5b5090506000819080600181540180825580915050600190039060005260206000200160009091909190916101000a81548173ffffffffffffffffffffffffffffffffffffffff021916908373ffffffffffffffffffffffffffffffffffffffff16021790555060018060003373ffffffffffffffffffffffffffffffffffffffff1673ffffffffffffffffffffffffffffffffffffffff16815260200190815260200160002060006101000a81548160ff02191690831515021790555050565b60008060005b6000805490508110156102ef5760008082815481106101fc57fe5b9060005260206000200160009054906101000a900473ffffffffffffffffffffffffffffffffffffffff1690503373ffffffffffffffffffffffffffffffffffffffff168173ffffffffffffffffffffffffffffffffffffffff16638da5cb5b6040518163ffffffff1660e01b815260040160206040518083038186803b15801561028657600080fd5b505afa15801561029a573d6000803e3d6000fd5b505050506040513d60208110156102b057600080fd5b810190808051906020019092919050505073ffffffffffffffffffffffffffffffffffffffff1614156102e1578092505b5080806001019150506101e1565b508091505090565b6103d1806103058339019056fe608060405234801561001057600080fd5b506040516103d13803806103d18339818101604052602081101561003357600080fd5b8101908080519060200190929190505050806000806101000a81548173ffffffffffffffffffffffffffffffffffffffff021916908373ffffffffffffffffffffffffffffffffffffffff16021790555030600160006101000a81548173ffffffffffffffffffffffffffffffffffffffff021916908373ffffffffffffffffffffffffffffffffffffffff160217905550506102fc806100d56000396000f3fe60806040526004361061004a5760003560e01c80631b3f48421461004f5780637b7985ad146100595780638da5cb5b1461009a578063c71daccb146100db578063ee4ae2c914610106575b600080fd5b610057610154565b005b34801561006557600080fd5b5061006e610167565b604051808273ffffffffffffffffffffffffffffffffffffffff16815260200191505060405180910390f35b3480156100a657600080fd5b506100af61018d565b604051808273ffffffffffffffffffffffffffffffffffffffff16815260200191505060405180910390f35b3480156100e757600080fd5b506100f06101b1565b6040518082815260200191505060405180910390f35b6101526004803603604081101561011c57600080fd5b81019080803573ffffffffffffffffffffffffffffffffffffffff16906020019092919080359060200190929190505050610223565b005b633b9aca0034101561016557600080fd5b565b600160009054906101000a900473ffffffffffffffffffffffffffffffffffffffff1681565b60008054906101000a900473ffffffffffffffffffffffffffffffffffffffff1681565b60008060009054906101000a900473ffffffffffffffffffffffffffffffffffffffff1673ffffffffffffffffffffffffffffffffffffffff163373ffffffffffffffffffffffffffffffffffffffff161461020c57600080fd5b670de0b6b3a7640000478161021d57fe5b04905090565b60008054906101000a900473ffffffffffffffffffffffffffffffffffffffff1673ffffffffffffffffffffffffffffffffffffffff163373ffffffffffffffffffffffffffffffffffffffff161461027b57600080fd5b8173ffffffffffffffffffffffffffffffffffffffff166108fc829081150290604051600060405180830381858888f193505050501580156102c1573d6000803e3d6000fd5b50505056fea2646970667358221220b4f671f77dc285efc58bd2cbf565c1b776f240a76f1ed6e7ef34178d498ac06864736f6c63430007000033a2646970667358221220f62b506928034081bbfe32ed71bd422a4f1fa9dbcc70528e70df98b52a25785c64736f6c63430007000033",
  "immutableReferences": {},
  "source": "// SPDX-License-Identifier: MIT\npragma solidity ^0.7.0;\n\ncontract CreateWallet {\n    Wallet[] private wallets;\n    mapping(address => bool) private walletRight; // for everybody should only have 1 wallet\n\n    // you can create a wallet with this function\n    function createWallet() public {\n        require(!walletRight[msg.sender]);\n        Wallet wallet = new Wallet(msg.sender);\n        wallets.push(wallet);\n        walletRight[msg.sender] = true;\n    }\n\n    // this function show to your created contract address \n    function showMyContractAddress() public view returns(address) {\n        address myAddress;\n        for(uint i=0; i < wallets.length; i++) {\n            Wallet _wallet = wallets[i];\n            if(Wallet(_wallet).owner() == msg.sender){\n                myAddress = address(_wallet);\n            }\n        }\n        return myAddress;\n    } \n}\n\ncontract Wallet  {\n    address public owner;\n    address public walletAddr;\n\n    // this constructor is for clarify the owner of wallet\n    constructor(address _owner) {\n        owner = _owner;\n        walletAddr = address(this);\n    }\n\n    // this modifier is allows to only owner can manage the functions\n    modifier ownerOnly() {\n        require(msg.sender == owner);\n        _;\n    }\n\n    // this function allows you to add some money to your wallet  \n    function addMoney() public payable {\n        require(msg.value >= 1 gwei); // Not to much limit\n    }\n\n    // you can check your balance with this function if you're the owner of the wallet\n    function checkBalance() ownerOnly public view returns(uint) {\n        return (address(this).balance/1000000000000000000); // Converting wei to ether\n    }\n\n    // you can send money from your contract account to the EOA account\n    // NOTE: YOU CAN'T SEND MONEY TO OTHER CONTRACT ACCOUNT\n    function sendMoney(address payable receiver, uint amount) public payable ownerOnly {\n        address(uint160(receiver)).transfer(amount); // You're sending amount of wei not ether\n    }\n\n}\n",
  "sourcePath": "/Users/aliercanozgokce/Desktop/ContractWallet/contracts/Wallet.sol",
  "compiler": {
    "name": "solc",
    "version": "0.7.0+commit.9e61f92b.Emscripten.clang"
  },
  "schemaVersion": "3.4.7",
  "updatedAt": "2022-04-11T13:50:48.889Z",
  "devdoc": {
    "kind": "dev",
    "methods": {},
    "version": 1
  },
  "userdoc": {
    "kind": "user",
    "methods": {},
    "version": 1
  }
}