{
  "contractName": "Wallet",
  "abi": [
    {
      "inputs": [],
      "stateMutability": "nonpayable",
      "type": "constructor"
    },
    {
      "inputs": [],
      "name": "owner",
      "outputs": [
        {
          "internalType": "address",
          "name": "",
          "type": "address"
        }
      ],
      "stateMutability": "view",
      "type": "function",
      "constant": true
    },
    {
      "inputs": [],
      "name": "walletAddr",
      "outputs": [
        {
          "internalType": "address",
          "name": "",
          "type": "address"
        }
      ],
      "stateMutability": "view",
      "type": "function",
      "constant": true
    },
    {
      "inputs": [],
      "name": "addMoney",
      "outputs": [],
      "stateMutability": "payable",
      "type": "function",
      "payable": true
    },
    {
      "inputs": [],
      "name": "checkBalance",
      "outputs": [
        {
          "internalType": "uint256",
          "name": "",
          "type": "uint256"
        }
      ],
      "stateMutability": "view",
      "type": "function",
      "constant": true
    },
    {
      "inputs": [
        {
          "internalType": "address payable",
          "name": "receiver",
          "type": "address"
        },
        {
          "internalType": "uint256",
          "name": "amount",
          "type": "uint256"
        }
      ],
      "name": "sendMoney",
      "outputs": [],
      "stateMutability": "payable",
      "type": "function",
      "payable": true
    }
  ],
  "bytecode": "0x608060405234801561001057600080fd5b50336000806101000a81548173ffffffffffffffffffffffffffffffffffffffff021916908373ffffffffffffffffffffffffffffffffffffffff16021790555030600160006101000a81548173ffffffffffffffffffffffffffffffffffffffff021916908373ffffffffffffffffffffffffffffffffffffffff1602179055506102eb806100a16000396000f3fe60806040526004361061004a5760003560e01c80631b3f48421461004f5780637b7985ad146100595780638da5cb5b1461009a578063c71daccb146100db578063ee4ae2c914610106575b600080fd5b610057610154565b005b34801561006557600080fd5b5061006e610167565b604051808273ffffffffffffffffffffffffffffffffffffffff16815260200191505060405180910390f35b3480156100a657600080fd5b506100af61018d565b604051808273ffffffffffffffffffffffffffffffffffffffff16815260200191505060405180910390f35b3480156100e757600080fd5b506100f06101b1565b6040518082815260200191505060405180910390f35b6101526004803603604081101561011c57600080fd5b81019080803573ffffffffffffffffffffffffffffffffffffffff16906020019092919080359060200190929190505050610212565b005b633b9aca0034101561016557600080fd5b565b600160009054906101000a900473ffffffffffffffffffffffffffffffffffffffff1681565b60008054906101000a900473ffffffffffffffffffffffffffffffffffffffff1681565b60008060009054906101000a900473ffffffffffffffffffffffffffffffffffffffff1673ffffffffffffffffffffffffffffffffffffffff163373ffffffffffffffffffffffffffffffffffffffff161461020c57600080fd5b47905090565b60008054906101000a900473ffffffffffffffffffffffffffffffffffffffff1673ffffffffffffffffffffffffffffffffffffffff163373ffffffffffffffffffffffffffffffffffffffff161461026a57600080fd5b8173ffffffffffffffffffffffffffffffffffffffff166108fc829081150290604051600060405180830381858888f193505050501580156102b0573d6000803e3d6000fd5b50505056fea264697066735822122086bdb2b77b3b5a37a36f4962b993908d738c07b0de51aa0806e3a1e660f42c0164736f6c63430007000033",
  "immutableReferences": {},
  "source": "// SPDX-License-Identifier: MIT\npragma solidity ^0.7.0;\n\ncontract Wallet  {\n    address public owner;\n    address public walletAddr;\n\n    // this constructor is for clarify the owner of wallet\n    constructor() {\n        owner = msg.sender;\n        walletAddr = address(this);\n    }\n\n    // this modifier is allows to only owner can manage the functions\n    modifier ownerOnly() {\n        require(msg.sender == owner);\n        _;\n    }\n\n    // this function allows you to add some money to your wallet\n    function addMoney() public payable {\n        require(msg.value >= 1 gwei); // Not to much limit\n    }\n\n    // you can check your balance with this function if you're the owner of the wallet\n    function checkBalance() ownerOnly public view returns(uint) {\n        return (address(this).balance); // Converting wei to ether\n    }\n\n    // you can send money from your contract account to the EOA account\n    // NOTE: YOU CAN'T SEND MONEY TO OTHER CONTRACT ACCOUNT\n    function sendMoney(address payable receiver, uint amount) public payable ownerOnly {\n        address(uint160(receiver)).transfer(amount); // You're sending amount of wei not ether\n    }\n\n}\n",
  "sourcePath": "/Users/aliercanozgokce/Desktop/ContractWallet/contracts/Wallet.sol",
  "compiler": {
    "name": "solc",
    "version": "0.7.0+commit.9e61f92b.Emscripten.clang"
  },
  "schemaVersion": "3.4.7",
  "updatedAt": "2022-04-27T18:48:48.085Z",
  "networkType": "ethereum",
  "devdoc": {
    "kind": "dev",
    "methods": {},
    "version": 1
  },
  "userdoc": {
    "kind": "user",
    "methods": {},
    "version": 1
  }
}